:020000040800F2
:100000000805002045010008DD020008A9020008DB
:10001000D90200088D010008550400080000000006
:1000200000000000000000000000000001030008C4
:100030009101000800000000DF020008ED03000845
:100040005F0100085F0100085F0100085F01000810
:100050005F0100085F0100085F0100085F01000800
:100060005F0100085F0100085F0100085F010008F0
:100070005F0100085F0100085F0100085F010008E0
:100080005F0100085F0100085F0100085F010008D0
:100090005F0100085F0100085F0100085F010008C0
:1000A0005F0100085F0100085F0100085F010008B0
:1000B0005F0100085F0100085F0100085F010008A0
:1000C0005F0100085F0100085F0100085F01000890
:1000D0005F0100085F0100085F0100085F01000880
:1000E0005F0100085F0100085F0100085F01000870
:1000F0005F0100085F0100085F0100085F01000860
:100100005F0100085F0100085F0100085F0100084F
:100110005F0100085F0100085F0100085F0100083F
:100120005F0100085F0100085F0100085F0100082F
:10013000DFF80CD000F018F800480047BD040008B4
:10014000080500200648804706480047FEE7FEE70E
:10015000FEE7FEE7FEE7FEE7FEE7FEE7FEE7FEE777
:10016000F503000831010008064C074D06E0E06881
:1001700040F0010394E8070098471034AC42F6D3EE
:10018000FFF7DAFF94060008B406000800BFFEE798
:1001900070472DE9F041024600250026002000238B
:1001A0000024002791F803C00CF00F0591F803C05C
:1001B0000CF0100CBCF1000F03D091F802C04CEA17
:1001C000050591F800C0BCF1000F31D01468002083
:1001D0002BE04FF0010C0CFA00F3B1F800C00CEA70
:1001E00003069E4220D183004FF00F0C0CFA03F758
:1001F000BC4305FA03FC4CEA040491F803C0BCF1CB
:10020000280F06D14FF0010C0CFA00FCC2F814C004
:100210000AE091F803C0BCF1480F05D14FF0010C82
:100220000CFA00FCC2F810C0401C0828D1D314609E
:10023000B1F800C0BCF1FF0F34DD546800202EE09F
:1002400000F1080C4FF0010808FA0CF3B1F800C0F7
:100250000CEA03069E4221D183004FF00F0C0CFAEA
:1002600003F7BC4305FA03FC4CEA040491F803C00D
:10027000BCF1280F05D100F1080C08FA0CF8C2F8FF
:10028000148091F803C0BCF1480F07D100F1080CAD
:100290004FF0010808FA0CF8C2F81080401C08283A
:1002A000CED35460BDE8F08100BFFEE738B5044608
:1002B0000121082000F014F8ADF8004010208DF85E
:1002C000030003208DF8020069460248FFF761FF32
:1002D00038BD0000000C014000BFFEE770477047CA
:1002E00029B1064A92690243044B9A6104E0034A29
:1002F00092698243014B9A617047000000100240EE
:10030000704710B500F002F810BD00000CB50020D9
:10031000019000903348006840F480303149086013
:1003200000BF3048006800F4003000900198401C85
:100330000190009818B90198B0F5A06FF1D1294843
:10034000006800F4003010B10120009001E00020AE
:1003500000900098012843D12348006840F0100025
:10036000214908600846006820F00300086008463C
:10037000006840F0020008601A4840681949486067
:100380000846406848600846406840F4806048601D
:100390000846406820F47C1048600846406840F4F5
:1003A000E81048600846006840F08070086000BFB0
:1003B0000C48006800F000700028F9D00948406837
:1003C00020F00300074948600846406840F00200FA
:1003D000486000BF0348406800F00C000828F9D1CD
:1003E0000CBD0000001002400020024010B500F0DB
:1003F000A9F810BD10B51348006840F0010011497C
:10040000086008464068104908400E4948600846A0
:1004100000680E4908400B4908600846006820F44F
:10042000802008600846406820F4FE0048604FF4D1
:100430001F008860FFF765FF4FF000600449086007
:1004400010BD0000001002400000FFF8FFFFF6FEA4
:1004500008ED00E000BFFEE7014A024900F013B8D2
:10046000A90400083C00002002E008C8121F08C1CF
:10047000002AFAD170477047002001E001C1121F25
:10048000002AFBD170472DE9F04116460F4604467D
:10049000002503E03946B047641C6D1C2078002815
:1004A000F8D12846BDE8F08138B504468DF8000043
:1004B00069460320ABBE204638BD00000120FFF78F
:1004C000F5FE02A0FFF7C8FF00BFFEE72000000016
:1004D0000A490968096809B9012100E0002121B130
:1004E0004FF0FF31064A116006E004490968C96807
:1004F000C868034A4168116070470000040000208A
:100500003000002001460A69D1E901309860D1E944
:10051000010358605068884201D18868506000200B
:1005200008611068401E10601068704742684A6099
:1005300093688B60936859609160086103685B1CE5
:100540000360704710B500BFBF2080F31188BFF370
:100550004F8FBFF36F8F00BF00F00EF818B14FF050
:1005600080500449086000BF002080F3118800BF5C
:1005700010BD000004ED00E02DE9F04100273A48ED
:100580000068002863D139480068451C3748056079
:100590008DB93748D0F80080364800683449086083
:1005A0003448C0F8008034480068401C3249086074
:1005B000FFF78EFF00BF3148006885423BD300BF84
:1005C0002B480068006808B9012000E0002020B135
:1005D0004FF0FF30294908602CE025480068C068CA
:1005E000C4686668B54202D22448066022E0201D35
:1005F000FFF788FFA06A18B104F11800FFF782FF27
:1006000094F82C10012088401D49096808431C49B2
:100610000860E16A01EB81011A4A02EB8100211DA9
:10062000FFF784FF1849E06A0968C96A8842C7D39E
:100630000127C5E700BF14480068C06A00EB8000CE
:10064000104951F82000012800D9012704E00F4883
:100650000068401C0D4908600D48006800B1012782
:100660003846BDE8F081000038000020140000206A
:100670000400002008000020280000203000002096
:100680001800002040000020000000202000002072
:1006900024000020B40600080000002040000000F4
:1006A00068040008F406000840000020C8040000A8
:1006B00078040008000000000000000000000000B6
:1006C000000000000000000000000000000000002A
:1006D000000000000000000000000000000000001A
:1006E000000000000000000000000000000000000A
:0406F0000000000006
:0400000508000145A9
:00000001FF
