:020000040800F2
:100000001804002045010008490100084B010008C0
:100010004D0100084F0100085101000800000000D8
:100020000000000000000000000000005301000874
:1000300055010008000000005701000859010008A0
:100040005B0100085B0100085B0100085B01000820
:100050005B0100085B0100085B0100085B01000810
:100060005B0100085B0100085B0100085B01000800
:100070005B0100085B0100085B0100085B010008F0
:100080005B0100085B0100085B0100085B010008E0
:100090005B0100085B0100085B0100085B010008D0
:1000A0005B0100085B0100085B0100085B010008C0
:1000B0005B0100085B0100085B0100085B010008B0
:1000C0005B0100085B0100085B0100085B010008A0
:1000D0005B0100085B0100085B0100085B01000890
:1000E0005B0100085B0100085B0100085B01000880
:1000F0005B0100085B0100085B0100085B01000870
:100100005B0100085B0100085B0100085B0100085F
:100110005B0100085B0100085B0100085B0100084F
:100120005B0100085B0100085B0100085B0100083F
:10013000DFF80CD000F014F800480047290200084E
:100140001804002005480047FEE7FEE7FEE7FEE74B
:10015000FEE7FEE7FEE7FEE7FEE7FEE73101000807
:10016000064C074D06E0E06840F0010394E8070004
:1001700098471034AC42F6D3FFF7DEFF6802000860
:100180008802000802E008C8121F08C1002AFAD13C
:1001900070477047002001E001C1121F002AFBD107
:1001A00070474FF47A7006E04FF4FA7100BF0A1EF0
:1001B000A1F10101FBD1021EA0F10100F4D17047B1
:1001C00030B50446032C19D100250BE01248405DE0
:1001D00038B1124850F825001149096808441049FF
:1001E00008606D1C032DF1DB0D4800680D490860A7
:1001F000FFF7D7FF00200A49086030BD601CFFF7F9
:10020000DFFF012004490855601CFFF7D9FF0020DB
:100210000149085500BFF0E7100000200000002051
:100220000C0000200C0C01400B48806940F00800D5
:100230000949886109480068094908400749086078
:1002400008460068074908430449086002E00020A6
:10025000FFF7B6FFFBE7000000100240000C014072
:1002600000FF0FFF2200200088020008000000208D
:1002700014000000840100089C0200081400002003
:1002800004040000940100082000000001000000A8
:0C02900002000000000000000000000060
:0400000508000145A9
:00000001FF
