:020000040800F2
:100000000804002045010008490100084B010008D0
:100010004D0100084F0100085101000800000000D8
:100020000000000000000000000000005301000874
:1000300055010008000000005701000859010008A0
:100040005B0100085B0100085B0100085B01000820
:100050005B0100085B0100085B0100085B01000810
:100060005B0100085B0100085B0100085B01000800
:100070005B0100085B0100085B0100085B010008F0
:100080005B0100085B0100085B0100085B010008E0
:100090005B0100085B0100085B0100085B010008D0
:1000A0005B0100085B0100085B0100085B010008C0
:1000B0005B0100085B0100085B0100085B010008B0
:1000C0005B0100085B0100085B0100085B010008A0
:1000D0005B0100085B0100085B0100085B01000890
:1000E0005B0100085B0100085B0100085B01000880
:1000F0005B0100085B0100085B0100085B01000870
:100100005B0100085B0100085B0100085B0100085F
:100110005B0100085B0100085B0100085B0100084F
:100120005B0100085B0100085B0100085B0100083F
:10013000DFF80CD000F014F800480047A5010008D3
:100140000804002005480047FEE7FEE7FEE7FEE75B
:10015000FEE7FEE7FEE7FEE7FEE7FEE73101000807
:10016000064C074D06E0E06840F0010394E8070004
:1001700098471034AC42F6D3FFF7DEFF5002000878
:100180007002000802E008C8121F08C1002AFAD154
:1001900070477047002001E001C1121F002AFBD107
:1001A0007047000000202449896941F00801224A73
:1001B00091611146896941F0040191611F49096803
:1001C0001F4A11401D4A11601E49096821F00F01A4
:1001D0001C4A1160194909681B4A1143174A1160EA
:1001E0001849096841F00401164A11604FF40011E2
:1001F000124A0C3211601DE012490831097801F0F1
:100200000101B9B100BF0F490831097801F00101BE
:100210000029F8D1421CD2B2114602EBD172521021
:10022000A1EB4202D2B21046084951F82010034A0D
:100230000C321160E0E7000000100240000C0140A9
:1002400000FF0FFF000801402200200000000020F6
:10025000700200080000002008000000840100086F
:100260007802000808000020000400009401000843
:0802700000002000FFFFFFFF6A
:0400000508000145A9
:00000001FF
